:020000040800F2
:10000000B0050020C9000008C518000897160008B0
:1000100000000000000000000000000000000000E0
:10002000000000000000000000000000C9180008E7
:100030000000000000000000C7180008CB180008EE
:10004000DB00000800000000DB000008DB00000807
:10005000DB000008B9020008DB000008DB00000834
:1000600000000000DB000008DB000008DB000008E7
:100070002502000825190008DB0000080000000028
:10008000391A0008DB00000800000000DB0000084F
:10009000DB000008DB000008DB000008DB000008D4
:1000A000DB000008DB000008DB000008DB000008C4
:1000B000C52000080348854600F0A2F80048004724
:1000C00079220008B0050020044880470448004712
:1000D000FEE7FEE7FEE7FEE7FEE7FEE72119000880
:1000E000B500000830B50B4601460020202201244F
:1000F00009E00D46D5409D4205D31D469540491B5C
:100100002546954040191546521E002DF1DC30BDA4
:1001100070B500242546002801DA01244042002958
:1001200001DA01254942FFF7DDFFAC4200D0404231
:10013000002C00D0494270BDF0B51FB40646002027
:1001400082B005464024019100901BE001992246AF
:100150000F46304600F020F8049A059B801A99411A
:1001600010D310461946224600F039F8361A8F414E
:100170000197224601200021009F00F030F8381836
:100180004D4100902046641E0028DFDC019B009852
:100190002946324607B0F0BD10B5202A04DB0846D8
:1001A000203AD040002110BD0B46D340D04020243F
:1001B000A21A91400843194610BDD2B201E0027064
:1001C000401C491EFBD270470022F6E710B51346CB
:1001D0000A4604461946FFF7F0FF204610BD10B549
:1001E000202A04DB0146203A9140002010BD9140B6
:1001F00020239C1A0346E3401943904010BD0000A1
:10020000064C0125064E05E0E36807CC2B430C3C69
:1002100098471034B442F7D3FFF750FF502300083B
:100220007023000810B5024800F02FF910BD00003F
:1002300070000020F8B50446002000902068816816
:100240008907890F012905D10168C9072CD1C16827
:10025000090429D48168154A102611400125002976
:1002600015D1816829438160124811490068FFF760
:1002700039FF00E0401E00900028FBD100F092FB07
:1002800007460CE000F08EFBC01B022807D9A06BCC
:100290003043A063E06B2843E0630120F8BD206891
:1002A0000068C043C007EDD10020F8BD17000080F2
:1002B00040420F006C00002070B5264D264E286885
:1002C00009243040E40601282AD10121204600F00B
:1002D0005DFB002824D021490020486020480068A8
:1002E00020280BDC1F4800220168491C01602021E6
:1002F000204600F050FB012210210AE01A4800229B
:100300000168491C01601021204600F044FB0122D5
:100310002021204600F03FFB14480168491C016081
:100320000221204600F032FB00280AD02968491C2F
:100330002960314001290BD000228021204600F0A5
:100340002AFB012000F072FA022000F06FFA70BD63
:100350000122F2E7040000200100008018000020C4
:100360000C000020140000201000002000000020DD
:10037000F8B50025044620340095227D012A39D0A5
:100380000122227503689E68760767D4384F4E684D
:10039000BE424DD09E6A0F78BA4016439E6201233A
:1003A000C26A1B079A421FD0012A1DD0022A1BD005
:1003B000032A19D0042A17D0052A15D0062A13D0EB
:1003C000072A11D002688B6856697607760FB34208
:1003D0000AD05369DB08DB005361006842690B7A7D
:1003E0005B075B0F1A4342610A68102A04D0112A86
:1003F00002D038E00220F8BD1E488368102A07D0DA
:1004000001229205134383600868102803D02AE074
:100410000122D205F6E7194817490068FFF762FE86
:100420000A21484300E0401E00900028FBD11AE05A
:10043000986A0E78B240904398620968102901D0FA
:10044000112910D10B488268102904D00121890597
:100450008A43826007E00121C905F9E7816B202208
:10046000114381630125002020752846F8BD000056
:10047000011000000027014040420F006C000020E6
:10048000704770470068006C704770B5044600689C
:100490000168490702D54168490705D40168090781
:1004A00030D5416809072DD5A16BC90604D4A16BCD
:1004B000012252021143A163C1680C250905890F6D
:1004C00000291AD1A17E002917D10168090714D586
:1004D00081684A070121002A08DB4268AA4342607A
:1004E000A06B0A0290430843A06306E0A06B2022A1
:1004F0001043A063E06B0843E0632046FFF7C0FFB2
:10050000206805602068016809060DD5406800066E
:100510000AD5A06B012109040843A063204600F01E
:10052000D9F821688020086020680168C90613D5C1
:100530004168C90610D5A16A1025012902D0C168F9
:10054000C90707D0E16B02221143E1630560204631
:10055000FFF797FF2068056070BD0000F8B5002622
:100560000446002805D0A06B25462035002802D07F
:1005700007E00120F8BD0020E0632875204600F068
:10058000ABF8A06B1022C006002870DB20688168E1
:1005900049076CD4A16B1301994302231943A1634A
:1005A00081688907890F012905D10168C9070FD121
:1005B000C16809040CD4C16818239943A36819437E
:1005C000C160206801696368890089081943016175
:1005D0002068C1683D4B1940C160207E617E800368
:1005E000C9030843A17E4B031843A36A012B02D021
:1005F00001231B0300E000231843E3681843236929
:10060000022B09D0002318432B79E57E5B001843A9
:100610000123012D02D00AE00423F4E7002927D0AA
:10062000A16B20252943A163E16B1943E163E169D3
:100630000D46FF3DC23D02D0256A2943084321688B
:10064000CD680543CD600125E16A2D07A94213D08D
:10065000012911D002290FD003290DD004290BD074
:10066000052909D0062907D0072905D010E028E080
:10067000012109040843DAE721684D69ED08ED001E
:100680004D6121684D69A78D7F077F0F3D434D6107
:100690002168C9680E4D2940814207D10020E063DE
:1006A000A06B80088000401CA06308E0A06B0221C2
:1006B00088431043A063E06B1843E0630126304693
:1006C000F8BDA06B1043A063F8E700001902FEFF1D
:1006D000E7FF3F837047000010B586B00446142141
:1006E0006846FFF771FD13492068884220D11248FF
:1006F000826941150A43826182690A400592426912
:1007000089020A4342614069084005901020009028
:1007100003200190002002906946084800F092F8FA
:10072000002211460C2000F09DF90C2000F08EF9FB
:1007300006B010BD0024014000100240000800482F
:1007400070B50446216800208968490732D42546DF
:100750002035297D01292DD001212975617E0129AE
:1007600004D02046FFF766FD002818D1A16B124A7D
:100770001140FF2201321143A1630021E163297579
:1007800022681C21116063690422082B08D02368A9
:100790005D680D435D6021688B6813438B6070BD9D
:1007A00021684B6893434B6021684B6818252B43A5
:1007B0004B60F0E7022070BDFEF1FFFF70B5002432
:1007C000014620314A78022A03D0042181630124A2
:1007D00016E0026813680E25AB43136002681368C5
:1007E0005B085B0013600122056C1346AB40C56BD0
:1007F0006B604A7000220A70416B002900D0884764
:10080000204670BD70B5044600F0CCF80546601C6B
:1008100002D004480078241800F0C4F8401BA0421D
:10082000FAD370BD600000207047000010B5044985
:100830004A69024202D04861FFF7F6FF10BD00008E
:1008400000040140F8B500238DE001249C40A4463B
:1008500022407DD04C68022C01D0122C0CD1DC0837
:10086000A40027183C6A5D07ED0E0F26AE40B44386
:100870000E69AE4026433E6205685E000324B44024
:100880000F79A543BF07BF0FB7402F4307604D68DF
:10089000012D05D0022D03D0112D01D0122D0ED126
:1008A0008568CF68A543B7402F4387604768654692
:1008B000AF430D79ED06ED0F9D403D434560C568A2
:1008C000A5438C68B4402C43C4604C68E40049D50F
:1008D000284CA56901263543A561A4699D083440CB
:1008E0000094254CAD002F19BC689D072E0F0F25D5
:1008F000B540AC430925ED06A84201D100250FE023
:100900001E4DA84201D101250AE01D4DA84201D18A
:10091000022505E01B4DA84201D1032500E0052575
:10092000B5402543BD60184C25684E689543F603D5
:1009300000D51543256065684E689543B60300D51C
:1009400015436560A5684E689543F60202D500E040
:1009500008E01543A560E5684E689543B60200D5EA
:100960001543E5605B1C0A681446DC4000D06CE768
:10097000F8BD0000001002400000014000040048E3
:1009800000080048000C00480004014000690840CD
:1009900000D001207047002A01D081617047816238
:1009A0007047000001488068704700006000002028
:1009B00002488168027889188160704760000020D1
:1009C00010B506480168102211430160002000F0B4
:1009D00007F800F027F8002010BD000000200240BA
:1009E00070B504460D4D7D202978C000FFF77AFBD5
:1009F00001460B480068FFF775FB00F0CFFA0028AE
:100A000009D1042C07D200222146401E00F02AF80A
:100A100000206C6070BD012070BD000060000020EF
:100A20006C00002008B508488169012211438161EA
:100A3000816911400091C26901040A43C261C06921
:100A40000840009008BD000000100240002805DBAF
:100A5000C106C90E012088400149086070470000A6
:100A600000E100E010B501F05BFB10BDF8B50F46EA
:100A7000060059D03A4D2868C007C00FB84209D2C5
:100A8000286840084000384328602868C007C00F25
:100A9000B84249D13068334C81070CD5400704D5A2
:100AA000606807210902084360606068F02188439C
:100AB000B168084360603078C00726D070680128AC
:100AC0000ED0216802280ED0890700292CDA61682F
:100AD0008908890001436160FFF764FF00900DE021
:100AE00021688903F1E78901EFE7FFF75BFF0099D0
:100AF000411A1D48814201D90320F8BD60680C21CC
:100B00000840716889008842EFD12868C007C00F8B
:100B1000B8420BD92868400840003843286028684C
:100B2000C007C00FB84201D00120F8BD307840079F
:100B300006D56068072109028843F16808436060B0
:100B400000F028F86168094A0906090F515CC8409D
:100B5000074908600020FFF743FF0020F8BD0000B0
:100B600000200240001002408813000038230008D3
:100B70006C0000200448054900684968044A49059A
:100B8000490F515CC84070476C00002000100240C3
:100B90004823000810B514A30FCB88B06C460FC4CF
:100BA00015A30FCB0FC4184A51680C200B46034005
:100BB0001648042B16D0082B14D18B021B0F6C4641
:100BC000E45CD26A04AB1207120F9A5CC90305D524
:100BD00000231946FFF7B0FA214601E020460C49F0
:100BE00001F078FA08B010BD0203040506070809F1
:100BF0000A0B0C0D0E0F1010010203040506070866
:100C0000090A0B0C0D0E0F100010024000127A00A2
:100C100000093D00FEB5040070D02078DC4DC0070F
:100C20004AD068680007800F012807D0686800076D
:100C3000800F022809D16868C00306D528688003A0
:100C40003AD560680028E7D036E06168012914D001
:100C500001208004002901D0052914D02A6801212F
:100C600009048A432A602968814329606068002852
:100C700016D0FFF797FE06460EE02868012109040A
:100C800008432860F2E7296801432960F5E7FFF788
:100C900089FE801B64286ED828688003F7D50BE096
:100CA000FFF780FE064604E0FFF77CFE801B642809
:100CB000F1D828688003F7D420780126800700281F
:100CC0003CDA68680007800F07D068680007800F6B
:100CD000022809D16868C00306D42868800716D5A1
:100CE000E06801280AD112E0E0680028286816D0E0
:100CF00030432860FFF756FE074605E043E1FFF763
:100D000051FEC01B0228C6D828688007F7D528687E
:100D1000F82188432169C900084328600EE0400893
:100D200040002860FFF73EFE074604E0FFF73AFE6A
:100D3000C01B0228AFD828688007F7D420780007A6
:100D400022D5E0690028686A0ED030436862FFF758
:100D500029FE074604E0FFF725FEC01B02289AD8AB
:100D6000686A8007F7D50FE0400840006862FFF727
:100D700019FE074605E09DE0FFF714FEC01B0228A0
:100D800089D8686A8007F7D42078042740070028AC
:100D900060DA00200190E869C00008D4E969B8066B
:100DA0000143E961E969014001200091019079481E
:100DB0000168C90511D40168821511430160FFF76C
:100DC000F1FD009005E0FFF7EDFD0099401A642861
:100DD00070D870480068C005F5D5A06801280AD011
:100DE000002801D0052810D0286A40084000286259
:100DF000286AB84301E0286A30432862A0680028C6
:100E000012D0FFF7CFFD00900AE0286A384328622D
:100E1000F1E7FFF7C7FD0099411A5F48814249D8C1
:100E2000286A8007F5D50DE0FFF7BCFD009006E0CD
:100E3000FFF7B8FD0099411A574881423AD8286A0D
:100E40008007F5D40198002804D0E9690120000743
:100E50008143E9612078C00635D5606901280CD04E
:100E6000401D686B23D038436863686B40084000BE
:100E70006863FFF797FD064622E0686B38436863B6
:100E8000686B30436863FFF78DFD064604E0FFF7AB
:100E900089FD801B02285BD8686B8007F7D5686BDB
:100EA000F8218843A169C900084368630BE0B8438F
:100EB0006863F4E74CE0FFF775FD801B022847D814
:100EC000686B8007F7D4206A00285ED0696809073C
:100ED000890F022942D0012636060228286805D04B
:100EE000B0432860FFF75EFD044633E0B04328605E
:100EF000FFF758FD074604E0FFF754FDC01B02282A
:100F000026D828688001F7D4E86AE16A0009000160
:100F10000843E862616AA06A084369683D221204D6
:100F2000914308436860286830432860FFF73AFD22
:100F3000044604E0FFF736FD001B022808D82868A5
:100F40008001F7D521E0FFF72DFD001B022801D914
:100F50000320FEBD28688001F5D416E00128F8D0F2
:100F60006868E96A01221204636A02409A420AD15F
:100F70000907E26A090F914205D10F21890408404F
:100F8000A16A884201D00120FEBD0020FEBD000004
:100F9000001002400070004088130000094910B59D
:100FA000401E884201D9012010BD074C6061032119
:100FB000081F01F0B5F80020A06107202061002083
:100FC00010BD0000FFFFFF0000E000E07047704729
:100FD00030B5034620331A7F012A26D001221A7722
:100FE0000325CA682D02AA438D6800242A430125DF
:100FF000AD02AA434D6800682A430125ED02AA43C9
:101000000D682A4301252D03AA430D692A430125B2
:101010006D03AA434D69C9692A430125AD03AA435B
:101020000A4342641C77002030BD022030BD00001E
:10103000F0B502462032137F012B1ED00125157713
:101040000223537706687468B3687027BC430F683F
:101050002743776000680A4CA04205D0094CA042A3
:1010600002D0094CA04204D180244968A34319430B
:101070008160557700201077F0BD0220F0BD0000A0
:10108000002C014000040040004001400268D36889
:1010900001210B43D360006882685207520F062A71
:1010A00002D002680A43026000207047704770B5A2
:1010B0000446006801690025C9438907002915DB3A
:1010C000C168C943890711D4E91E01610120207755
:1010D000206880698007204602D0FFF7E7FF04E020
:1010E00000F0D4F8204600F083F9257720680169E4
:1010F000C943490717D4C168C943490713D4042118
:10110000C943016102202077206880698005800F33
:10111000204602D0FFF7CAFF04E000F0B7F82046EF
:1011200000F066F9257720680169C943090716D4DC
:10113000C168C943090712D40821C94301610420C9
:1011400020772068C0698007204602D0FFF7AEFFF5
:1011500004E000F09BF8204600F04AF9257720686B
:101160000169C943C90617D4C168C943C90613D464
:101170001021C9430161082020772068C0698005DB
:10118000800F204602D0FFF791FF04E000F07EF8C8
:10119000204600F02DF9257720680169C943C90769
:1011A00008D1C168C943C90704D1891E016120461D
:1011B00000F01FF920680169C943090609D4C16814
:1011C000C943090605D48021C94301612046FFF7C0
:1011D000FDFE20680169C943490609D4C168C943B5
:1011E000490605D44021C9430161204600F002F9B7
:1011F00020680169C943890609D4C168C9438906C1
:1012000005D42021C94301612046FFF7E0FE70BDEF
:1012100010B586B0044614216846FEF7D5FF236852
:10122000164C002016490222A34210D14C69130427
:101230001C434C614969029019400591D10103900A
:1012400000910920019204926946C00611E00D4CFC
:10125000A34210D14C69DB121C434C6149690290D6
:101260001940059140210390009104900192694634
:101270000548FFF7E7FA06B010BD0000002C01405A
:101280000010024000040040000800487047F8B514
:10129000064604462036307F0D4601280DD0012039
:1012A0003077022070770427002A08D0042A16D04D
:1012B000082A2AD00C2A4DD137E00220F8BD206838
:1012C00000F024FC206881690822114381612068B4
:1012D0008169B9438161206881692A6912E02068C7
:1012E00000F058FC206882690121C9020A4382612A
:1012F000206881690122920291438161206881699D
:101300002A6912021143816124E0206800F082FC06
:101310002068C26908210A43C2612068C169B943D3
:10132000C1612068C1692A6912E0206800F0B4FC3C
:101330002068C1690122D2021143C1612068C269DB
:10134000012189028A43C2612068C1692A691202A7
:101350001143C1610120707700203077F8BD70B56E
:10136000040005D025462035687F002802D006E01D
:10137000012070BD00202877204600F00BF80220E5
:101380006877211D206800F07DFB01206877002030
:1013900070BD000008B5134A0168134891420DD191
:1013A0008269C1140A43826180690022084000906A
:1013B00011460D20FFF756FB0D200FE00B4A91421E
:1013C0000ED1C26902210A43C261C06900220840ED
:1013D000009011461020FFF745FB1020FFF736FB69
:1013E00008BD0000002C0140001002400004004035
:1013F0007047704770477047F8B502680446D06977
:10140000116893684C4D06462E402025002E68D06A
:10141000DE07F60FFF2721370F40374375D0C70788
:1014200006D0CF0504D501271762E26F3A43E26781
:10143000820708D5DA0706D0276802223A62E26FEF
:1014400004273A43E267420708D5DA0706D0236843
:1014500004221A62E26F02231A43E267020709D5E7
:101460000A462A40324305D0236808221A62E36FF5
:101470001343E367020508D54A0106D50122236814
:10148000D2021A62E26F2A43E267E26F002A30D08A
:10149000800606D5880604D5216E002901D0204695
:1014A0008847E06F21688968490602D428210842EC
:1014B00024D0204600F0C6FC20688168490619D572
:1014C0008168402291438160E06E002812D01B4960
:1014D0004163E06EFFF772F900280AD0E06E416BBD
:1014E00006E0830611D58B060FD5216E12E020464B
:1014F0008847F8BD2046FFF77EFFF8BD2046FFF77E
:101500007AFF0020E067F8BDFFE7030605D50B066C
:1015100003D5616E0029EAD1F5E74006F3D5480608
:10152000F1D5116820464023994311606567002179
:10153000616600F0AFF8E6E70F080000311E000812
:1015400010B5040003D0606F002802D007E001202E
:1015500010BD002170200155204600F027F82420FE
:10156000606720680168490849000160204600F072
:1015700079FC0128ECD0606A002802D0204600F0F7
:10158000C1FB206841680122D2029143416020687A
:10159000816808229143816020680168012211431B
:1015A0000160204600F014FC10BD000010B586B0AC
:1015B000044614216846FEF707FE16492068884253
:1015C00025D11548C269012149040A43C261C26993
:1015D0000A40059242690A43426140690840059009
:1015E0000C20009002200190002002900320039024
:1015F0000120049009206946C006FFF723F9002264
:1016000011461C20FFF72EFA1C20FFF71FFA06B028
:1016100010BD0000004400400010024070B5436F50
:10162000202B30D100290AD0002A08D08568DC019F
:10163000A54206D10369002B03D1CB0701D00120BD
:1016400070BD034660331E7C012E1CD001261E7423
:10165000C164014640310A824A8200214166C16765
:1016600021224267A54202D10269002A09D0074A15
:1016700042661974006801688022114301600020ED
:1016800070BD034AF4E7022070BD0000ED1F0008A2
:10169000AD1F00087047FEE70EB500211448009109
:1016A0000191124A02910260416018228260012277
:1016B00004230C300EC0017041708170FF23C17093
:1016C000C2334360034681600833197102611838E0
:1016D000FEF744FF0E20009001200003019000045B
:1016E000029069460248FEF743FE0EBD0024014009
:1016F00070000020F0B587B014216846FEF764FD45
:1017000025484269012149040A43426142690A406D
:101710000592426989000A43426142690A40059282
:10172000426949100A43426140696F250840092611
:101730002D01F6060590002229463046FFF72BF9C9
:10174000164F00227F213846FFF725F9032000902D
:10175000134800240190694602943046FFF772F85E
:101760000095012502946946304601950394FFF7E0
:1017700069F87F20009002946946019503943846E9
:10178000FFF760F8002211460520FFF76BF90520EE
:10179000FFF75CF907B0F0BD0010024000040048FC
:1017A0000000111010B592B000240F941C2108A85D
:1017B0001094FEF709FD20216846FEF705FD1A4842
:1017C0001849016019498460416004614461184905
:1017D0008461C160FFF7C3FD0F940FA912481094F4
:1017E000FFF726FC60200D94099408900A940B944E
:1017F0000C94002208A90E940B48FFF748FD012025
:101800000094400302940590019403940494694663
:1018100007940548FFF7DCFB0348FFF7F9FC12B01B
:1018200010BD0000002C0140B00000203F9C0000D3
:10183000CF07000010B58AB0002407941C21684629
:101840000894FEF7C1FC11480F49016010498460FB
:101850004160046149108461C160FFF780FD079415
:1018600007A90A480894FFF7E3FB60200090019461
:1018700002940022694604940448FFF708FD0348D7
:10188000FFF7C6FC0AB010BD00040040F0000020C5
:101890009F0F000010B50A48084901604B21C9019B
:1018A000416000218160C16001618161C1610C22E0
:1018B000016242614162FFF743FE10BD00440040F7
:1018C0003001002070477047704710B5FFF770F87F
:1018D00010BD30B591B030216846FEF775FC00248C
:1018E00012200F94009001200D9403900590102079
:1018F0000E9404900690C00302250A900C9408955B
:1019000009940B946846FFF785F907200C900E9414
:1019100000210D950F940CA8FFF7A8F811B030BD69
:1019200070470000F8B53C4D3C4E28683C4C3040B8
:10193000012805D16068401C60602068401C206060
:101940003848FFF7B4FB6068374F02280CDD286881
:101950003040012808D13868C82805DA30490B2200
:101960003B313248FFF75AFE3868C72809DD28683E
:101970003040012846D12A490E2227312B48FFF753
:101980004DFE2868304001283CD1002020602949C4
:1019900027480D6800680A213E68FEF7B9FB204C15
:1019A00030310834E1710A21FEF7B2FB3031A17108
:1019B0000A21FEF7ADFB303161710A212846FEF79E
:1019C000A7FB303121740A21FEF7A2FB3031E1730D
:1019D0000A21FEF79DFB3031A1730A213046FEF744
:1019E00097FB3031E1760A21FEF792FB3031A17688
:1019F0000A21FEF78DFB303161761E2221460B480D
:101A0000FFF70CFE0948FFF7F7FC0848006801687B
:101A1000202211430160F8BD040000200100008075
:101A200018000020B000002000000020300100203D
:101A3000140000201000002070B50D48FFF737FBA0
:101A40000C4C0D4D20682840012805D10B48FEF7AD
:101A500019FD0B491A3008600548FFF728FB20687C
:101A60002840012802D10548FEF76AFE70BD00003B
:101A7000F000002004000020010000807000002021
:101A80000C000020F0B502681A4B1B4C984201D0A4
:101A9000A04203D17025AA434D682A43174D184E22
:101AA000184F98420AD0A04208D0174CA04205D047
:101AB000A84203D0B04201D0B84205D11446032257
:101AC00012029443CA6822438024A2434C692243F1
:101AD00002608A68C2620A688262984205D0A8429F
:101AE00003D0B04201D0B84201D10969016301219C
:101AF0004161F0BD002C0140000400400040014065
:101B0000004401400048014000200040F0B5026A56
:101B1000520852000262056A436882697024A24337
:101B200092080C6892001443022295438A68164E6C
:101B30002A43144DA84207D0B04205D0134FB842F3
:101B400002D0134FB84206D10827BA43CF681743D3
:101B5000042297433A46A84207D0B04205D00B4D25
:101B6000A84202D00A4DA84206D103252D02AB435C
:101B70004D691D438B692B43436084614968416310
:101B80000262F0BD002C01400040014000440140D1
:101B90000048014070B5026A10239A430262056A48
:101BA0004268836973242402A3430C6824021C4303
:101BB00020239D438B681B012B43124DA84208D163
:101BC0001D46CB688026B5431B012B434025AB4304
:101BD00008E00D4DA84205D00C4DA84202D00C4D96
:101BE000A84208D10325AD02AA434D69AD001543B3
:101BF0008A6992002A434260846149688163036272
:101C000070BD0000002C0140004001400044014034
:101C10000048014070B5026AFF2301339A43026213
:101C2000056A4368C2697024A24392080C68920056
:101C300014430122520295438A6812022A43124D2C
:101C4000A84208D11546CA68C614B54312022A43F1
:101C50000515AA4308E00D4DA84205D00C4DA84239
:101C600002D00C4DA84208D103252D03AB434D698A
:101C70002D011D438B691B012B434360C4614968DF
:101C8000C163026270BD0000002C014000400140B1
:101C9000004401400048014030B5026A01231B03A3
:101CA0009A430262046A4268C36973252D02AB43FA
:101CB0000D682D021D4301235B039C438B681B03AE
:101CC00023430C4CA04208D00B4CA04205D00B4C37
:101CD000A04202D00A4CA04205D10124A403A24391
:101CE0004C69A40122434260C561496801640362F2
:101CF00030BD0000002C0140004001400044014084
:101D00000048014010B5818CC90707D001684A68B6
:101D100001235B049A43836A1A434A60818C8907D2
:101D200007D501684A6801231B049A43C36A1A4312
:101D30004A60818C490707D501684A6801239B04E2
:101D40009A43036B1A434A60818C090707D50168DF
:101D50004A680123DB039A43436B1A434A60818C30
:101D6000C90607D50268916801231B039943836B59
:101D700019439160818C890607D501688A6801231F
:101D80005B039A43C36B1A438A60818C490612D560
:101D900003685A6801210905046C8A4322435A608A
:101DA000026C8A4207D10268516803235B0599439C
:101DB000436C19435160818C090607D501684A6854
:101DC0000123DB04806C9A4302434A6010BD00008B
:101DD000F8B500260446C667FEF7E4FD0546206810
:101DE0000068124F000709D501212B460022490542
:101DF0002046009700F018F900280DD120680068EF
:101E000040070BD501212B4600228905204600976B
:101E100000F00AF9002801D00320F8BD20206067F7
:101E2000A067603426740020F8BD0000FFFFFF01AA
:101E300010B5406A0022014640314A834A82FFF7CA
:101E4000DAFA10BD01680A68FF2321339A430A6059
:101E500001688A68520852008A6020218167002147
:101E60000166704770B5044680682169E2690843DD
:101E7000616900251143226808431168444B1940E9
:101E80000143116021684868032212039043E2680D
:101E900010434860A169206A2268084391680B23B7
:101EA0001B029943014391603A492068884210D14E
:101EB0003948006B8007800F11D0012805D0022817
:101EC00005D003280AD1022009E0042007E00820F9
:101ED00005E03249884201D1002000E010200122B3
:101EE000E169D2032E4E914228D1002806D0022863
:101EF00007D0042817D0082844D11AE0FEF73AFE8C
:101F000013E06168274A48088018FEF7EBF880B2B2
:101F100001461039B14235D82149491C014000071A
:101F2000400F084321E0FEF735FE616840004A0893
:101F3000EAE76168012248081204E5E7002806D0B4
:101F4000022807D0042813D008281BD116E0FEF77A
:101F500011FE0FE06168144A480811E0FEF7C2F86C
:101F600080B201461039B1420CD82168C8600AE03D
:101F7000FEF710FE61684A081018EFE7616848082C
:101F80008018EBE70125002020666066284670BDBA
:101F9000F369FFFF00380140001002400044004098
:101FA000EFFF00000024F40000127A00416F2129A5
:101FB00010D1014640314A8A002A0CD0C26C036815
:101FC0001288D205D20D1A85C26C921CC264488A4E
:101FD000401E4882704701680A6880239A430A605D
:101FE000006801684022114301607047416F212958
:101FF0000ED1014640314A8A002A0AD0C26C0368D9
:1020000012781A85C26C521CC264488A401E4882EB
:10201000704701680A6880239A430A600068016873
:102020004022114301607047FFB581B005460F465D
:10203000044660350A9E38E0701C36D0FEF7B2FCCC
:102040000499401AB04221D8002E1FD020680168A0
:1020500049072AD5C069C043000526D4012021685C
:10206000C002086220680168FF22A132914301602A
:102070002068816849084900816020206067A06766
:10208000E06700202874032005B0F0BD20680168D7
:10209000FF22A1329143016020688168490849000C
:1020A000816020206067A067EBE72068C16938463F
:1020B000884305D0002103988142BDD00020E3E78A
:1020C0000121F8E710B50248FFF796F910BD0000AE
:1020D00030010020F8B5040C8BB2264682B25E4374
:1020E0000D0C1046370C58433604801900217941F5
:1020F00016466E43370C36048019794126466E43E6
:102100008919F8BD30B47446641E2578641CAB424E
:1021100000D21D46635D5B00E31830BC1847000029
:102120008307FF22DB0E9A408907090E9940002899
:1021300008DB830809489B001B1818689043084374
:10214000186070470007000F0838830804489B0098
:102150001B18D86990430843D861704700E400E039
:1021600000ED00E002E008C8121F08C1002AFAD101
:1021700070477047002001E001C1121F002AFBD107
:1021800070470000F8B53A4C0A212068FDF7C0FFFF
:102190000E460A21A060FDF7BBFF01270925BF02FB
:1021A0000091ED06002239462846FEF7F4FB002296
:1021B00079102846FEF7EFFB009800F099F801220D
:1021C00039462846FEF7E7FB002279102846FEF73D
:1021D000E2FB0520FEF716FB002239462846FEF7F3
:1021E000DAFB002279102846FEF7D5FB002239469B
:1021F0002846FEF7D0FB002279102846FEF7CBFBDD
:10220000304600F075F8002239462846FEF7C3FB39
:10221000012251022846FEF7BEFB0520FEF7F2FA26
:10222000002239462846FEF7B6FB002279102846E0
:10223000FEF7B1FB20686438632804D801224021EE
:102240002846FEF7A8FB2068C82810DB00224021A2
:102250002846FEF7A0FB074C2046FEF7D3FA0122E2
:1022600040212846FEF797FB2046FEF7CBFAF8BD43
:1022700000000020B80B0000FEF7A2FBFFF729FBCF
:10228000FFF738FAFFF708FAFFF7D4FAFFF702FB77
:10229000FFF788FA134800680168202211430160A3
:1022A00010488038FEF7F2FE0E484038FEF7EEFE8A
:1022B0000C48C038FEF744FA0A488038FEF7E6FEBC
:1022C00008484038FEF7E2FE0648C038FEF738FA04
:1022D000054C064D606828400128FBD1FFF752FFEE
:1022E000F8E700003001002000000020010000801D
:1022F00000B53F220F490300FFF704FF0A19060843
:102300000A0C0E101214161906200EE05B200CE0C9
:102310004F200AE0662008E06D2006E07D2004E002
:10232000072002E07F2000E06F20486100BD4A6185
:1023300000BD000000040048000000000000000094
:10234000010203040607080900000000010203045B
:1023500070230008000000207000000064210008C5
:10236000E0230008700000204005000074210008F0
:10237000000000000000000000000000000000005D
:10238000000000000000000000000000000000004D
:10239000477270313A7878782C477270323A79798E
:1023A000792C546F706C616D3A7A7A7A0D0A004C10
:1023B000696D6974204173696D69210D0A0000001F
:1023C0000000005572756E20596F6B210D0A0000D8
:1023D00001000000040000000000000000127A006C
:04000005080000B53A
:00000001FF
